:020000040800F2
:10000000181500201503000805540008BF43000818
:10001000F55100089D1F0008B761000800000000AE
:10002000000000000000000000000000B3580008BD
:100030008121000800000000B1580008055900089F
:100040002F0300082F0300082F0300082F030008C8
:100050002F0300082F0300082F0300082F030008B8
:100060002F0300082F0300082F0300082F030008A8
:100070002F0300082F0300082F0300082F03000898
:100080002F0300082F0300082F0300082F03000888
:100090002F0300082F0300082F0300082F03000878
:1000A0002F0300082F0300082F0300082F03000868
:1000B000055A00082F0300082F0300082F0300082B
:1000C0002F0300082F0300082F0300082F03000848
:1000D0002F03000835610008416100082F03000864
:1000E0002F0300082F0300082F0300082F03000828
:1000F0002F0300082F0300082F0300082F03000818
:100100002F0300082F0300082F0300082F03000807
:100110002F0300082F0300082F0300082F030008F7
:100120002F0300082F030008D12000082F03000828
:100130002F0300082F0300082F0300082F030008D7
:100140002F0300082F0300082F0300082F030008C7
:100150002F0300082F0300082F0300082F030008B7
:100160002F0300082F0300082F0300082F030008A7
:100170002F0300082F0300082F03000800000000D1
:100180002F0300082F03000800F002F800F0B2F877
:100190000AA090E8000C82448344AAF10107DA45E2
:1001A00001D100F0A7F8AFF2090EBAE80F0013F082
:1001B000010F18BFFB1A43F001031847B8AA00004B
:1001C000D8AA00000A444FF0000C10F8013B13F0CD
:1001D000070408BF10F8014B1D1108BF10F8015BA0
:1001E000641E05D010F8016B641E01F8016BF9D193
:1001F00013F0080F1EBF10F8014BAD1C0C1B09D1EA
:100200006D1E58BF01F801CBFAD505E014F8016B5B
:1002100001F8016B6D1EF9D59142D6D370470000ED
:100220000023002400250026103A28BF78C1FBD8FF
:10023000520728BF30C148BF0B6070476E2900F0DD
:10024000DF82702900F02984662909F0D8856529A4
:1002500009F0D585672909F0D285612909F0D18592
:1002600003681B0A28BF41F08001692900F08C82D5
:10027000642900F08982752900F086826F2900F0D8
:10028000B683782900F0F583E92900F05183E42949
:1002900000F04E83F52900F04B83EF2900F0B38383
:1002A000F82900F0F4830368DB0928BF41F08001DE
:1002B000632901F0FB80732901F00081E32901F03B
:1002C0000B81F32901F01081002070471FB509F060
:1002D0008CFD01F05FF904000020002108F0A4FF6C
:1002E000401C60600020002108F088FFE0601FBD16
:1002F00010B510BD01F020F91146FFF7E7FF07F038
:10030000E8FD01F0FDF903B4FFF7F2FF03BC01F0D3
:1003100041FA00000948804709480047FEE7FEE728
:10032000FEE7FEE7FEE7FEE7FEE7FEE7FEE7FEE7A5
:1003300004480549054A064B704700009D590008CE
:1003400089010008180F002018150020181100203E
:100350001811002053EA020C00F069802DE9F04BDF
:100360004FF00006002B1FBFB3FA83F503FA05F424
:1003700024FA05F65E4012BF1643B2FA82F502FA7D
:1003800005F4C5F120051EBF22FA05FC44EA0C0461
:10039000203556EA044C4FEA144418BF641C4FF051
:1003A00000084FF00009904271EB030C39D300298B
:1003B00019BFB1FA81F701FA07F6B0FA80F700FA2F
:1003C00007F6C7F120071EBF20FA07FC46EA0C0615
:1003D0002037B6FBF4FCA7EB0507103F07F01F0B17
:1003E000CBF120060CFA0BFB2CFA06F644BFB34601
:1003F0000026202FA4BF5E464FF0000B5BEA060CE0
:1004000008BF4FF0010B19EB0B09ABFB027C48EB6B
:100410000608C01B06FB02CC0BFB03CC71EB0C01E6
:10042000C1E70B46024641464846BDE8F08B13B58E
:100430004FF000004FF00001AFF30080BDE81C401A
:10044000704710B54C1084EA530404D54042C1F102
:10045000000138BF491E1B4204D55242C3F10003BC
:1004600038BF5B1EFFF776FF14F0804F04D0404288
:10047000C1F1000138BF491E14F0004F04D05242B0
:10048000C3F1000338BF5B1E10BD00007CB51D46E4
:1004900016460C00009001D02044401E074B7B44C0
:1004A0002A4669460190304600F0C3F905461CB162
:1004B0000020694600F0D0F928467CBDC103000049
:1004C00040EA010310B59B070FD1042A0DD310C8D1
:1004D00008C9121F9C42F8D020BA19BA884201D923
:1004E000012010BD4FF0FF3010BD1AB1D30703D06B
:1004F000521C07E0002010BD10F8013B11F8014B21
:100500001B1B07D110F8013B11F8014B1B1B01D13C
:10051000921EF1D1184610BD032A40F2308010F02F
:10052000030C00F0158011F8013BBCF1020F62448E
:1005300098BF11F801CB00F8013B38BF11F8013B1F
:10054000A2F1040298BF00F801CB38BF00F8013BCC
:1005500011F0030300F02580083AC0F0088051F83C
:10056000043B083A51F804CBA0E80810F5E7121D47
:100570005CBF51F8043B40F8043BAFF30080D20766
:1005800024BF11F8013B11F801CB48BF11F8012B32
:1005900024BF00F8013B00F801CB48BF00F8012B55
:1005A000704710B5203AC0F00B80B1E81850203ADF
:1005B000A0E81850B1E81850A0E81850BFF4F5AF03
:1005C0005FEA027C24BFB1E81850A0E8185044BF8D
:1005D00018C918C0BDE810405FEA827C24BF51F8FA
:1005E000043B40F8043B08BF7047D20728BF31F8EE
:1005F000023B48BF11F8012B28BF20F8023B48BF3F
:1006000000F8012B704702F0FF0343EA032242EA9D
:10061000024200F002B84FF000020429C0F012803C
:1006200010F0030C00F01B80CCF1040CBCF1020FA5
:1006300018BF00F8012BA8BF20F8022BA1EB0C017A
:1006400000F00DB85FEAC17C24BF00F8012B00F870
:10065000012B48BF00F8012B70474FF0000200B596
:10066000134694469646203922BFA0E80C50A0E8D5
:100670000C50B1F12001BFF4F7AF090728BFA0E883
:100680000C5048BF0CC05DF804EB890028BF40F84F
:10069000042B08BF704748BF20F8022B11F0804F91
:1006A00018BF00F8012B704770477047704710B5AE
:1006B00000F0C2FA006810BD10B5044600F0BCFAA4
:1006C000046010BD70B5044685690068C10601D597
:1006D000302600E02026C00707D070BDD4E90121F4
:1006E00030469047206A401C20626D1EF6D570BDD2
:1006F00070B5044685690078C00707D170BDD4E99C
:10070000012120209047206A401C20626D1EF6D5F2
:1007100070BD09684A0501D540B27047C905FCD5CE
:1007200000B2704709684A0501D5C0B27047C905D3
:10073000FCD580B2704770B50C460546012A05D03D
:100740002878800600D5EA69002302E0012305E04D
:100750005B1C934202D2E05C0028F9D1A869E6183C
:10076000C01AA861286A184428622846FFF7AAFF21
:1007700004E0D5E9012114F8010B9047B442F8D305
:100780002846FFF7B5FF70BD2DE9F041064600246D
:1007900010687529314616A510D0FFF7BAFF00285A
:1007A00002DA404213A507E031688A0701D512A595
:1007B00002E0490704D511A5012401E0FFF7B2FFCB
:1007C00000210A2206F1240709E0B0FBF2FCB0FB8D
:1007D000F2F302FB1C00303078541846491C002804
:1007E000F3D123462A463046BDE8F04100F06DBA09
:1007F000000000002D0000002B0000002000000081
:1008000011680268006A530501D508700AE0D30533
:1008100001D5088006E0130603D5C217C1E900021E
:1008200000E008600120704701694A1C02610878F5
:10083000704700B58FB0CDE9013100210591054920
:100840007944CDE903101146684600F031F90FB044
:1008500000BD0000E5FFFFFF0A6802F8010B0A6017
:100860007047D1E900239A4202D2531C0B601070EA
:10087000704700002DE9FF5F15468A460446DFF801
:10088000AC80F8440027D8E900103E46CDE90010BE
:1008900010E03AF816106A4602A800F029FE411C42
:1008A00007D02178890603D5E269391891420DD81D
:1008B0000744761C2078800602D5E069B84205DD41
:1008C000AE42E6DB3AF816000028E2D1A069C01B70
:1008D000A0612046FFF7F6FED8E90010CDE9001030
:1008E000002017E03AF818106A4602A800F000FE4F
:1008F000B0F1FF3F81460BD000250DF1080B05E05C
:10090000D4E901211BF8050090476D1C4D45F7D334
:1009100008F10100B0428046E4DB206A38442062DE
:100920002046FFF7E5FEBDE8FF9F00004AA2000059
:100930002DE9F0418046D21D22F007020025D2E9C0
:100940000002F52915A614D0011E72F1000106DA85
:100950000023D0EB030063EB020211A608E0D8F8F5
:1009600000108B0701D50FA602E0490701D50EA69E
:1009700001251146002408F1240704E000F060F985
:1009800030323A55641C50EA0102F7D12B46324608
:1009900021464046BDE8F04100F097B90000000054
:1009A0002D0000002B0000002000000030B40021CA
:1009B00000F1240408E002F00705D208303542EACD
:1009C0004372DB086554491C52EA0305F3D10468FD
:1009D000002310A2250707D5A40600D421B1C469BD
:1009E00001230DA2641EC46130BC00F06EB910B5C5
:1009F000044621461068FFF795FE02462046BDE8F2
:100A000010400023D2E7D21D22F00701D1E90023D4
:100A1000CCE700000000000030000000F0B40D46FC
:100A20000188090502D5214C7C4402E01F4C7C441E
:100A30000E34002100F1240608E002F00F0712092D
:100A4000E75D42EA03721B097754491C52EA030727
:100A5000F3D102780023120704D5702D06D009B116
:100A6000022311342246F0BC00F02FB901231034C8
:100A7000F8E770B504460D4621461068FFF752FEB0
:100A8000024629462046BDE870400023C6E7D21D35
:100A900022F00703D3E90023C0E70368126843F09C
:100AA000200303600823C3610023B7E7ACA0000064
:100AB0002DE9F05F894604464FF0000ADFF874B173
:100AC000FB44C0F820A02046E1688847002874D085
:100AD000252806D0D4E901219047206A401C2062D5
:100AE000F1E700265F462046E16888472028054652
:100AF00007DB312D05D2781910F8200C08B1064318
:100B0000F1E7B00701D526F00406C4F81CA00027C1
:100B1000C4F818A02A2D09D0284606F041F838B3A9
:100B200004EB8708303DC8F8185019E059F8041B49
:100B3000204604EB87029161E1688847012F054652
:100B400018D1E069002820DA26F020061DE0D8F848
:100B5000180000EB800005EB40003038C8F81800A2
:100B60002046E1688847054606F01AF80028EED1CD
:100B7000012F0AD02E2D08D12046E16888477F1C1E
:100B80000546022F46F02006C4DBA069002803DAE0
:100B9000404246F00106A061F00701D026F01006A1
:100BA0006C2D0BD0682D09D04C2D39D06A2D35D045
:100BB000742D35D07A2D33D016E038E0E1682F4619
:100BC00020468847B842054609D16C2F26D04FF4FD
:100BD0008060E168064320468847054604E06C2FA4
:100BE0001AD04FF4807006430DB3A5F141001928C7
:100BF00002D8203546F400664A462946204626603B
:100C00004E46FFF71BFB80B101280BD0F61D26F0E6
:100C1000070000F1080956E74020E4E78020D8E704
:100C20000020D6E706F104094DE7284652E7206A7E
:100C3000BDE8F09F3CA0000000487047B80E0020BF
:100C400030B5B0F10A024FEA900E71F100034EEA9E
:100C5000817EB0EB0E0061EB91014FEA101E4EEA6F
:100C6000017E10EB0E0041EB11114FEA102E4EEAFF
:100C7000016E10EB0E0041EB11214FEA104E4EEACF
:100C8000014E10EB0E0041EB1141401841F1000103
:100C90004FEAD00040EA41704FEAD10110EB8005E5
:100CA0004FEA810444EA907444EB01046D1944EB6B
:100CB0000404521BA3414FF0000348BF0A3200D581
:100CC00030BD401C41F1000130BD2DE9F0470D461B
:100CD00099469246044600F124080168880604D526
:100CE000E06921F01001216000E00120A84201DD4F
:100CF000471B00E00027A1697A1902EB0900081AD6
:100D0000A0612078C00602D42046FFF7DBFC002655
:100D100008E0D4E901211AF806009047206A401C37
:100D2000761C20624E45F4DB2078C0060AD52046AA
:100D3000FFF7C8FC06E0D4E9012130209047206A83
:100D4000401C2062381EA7F10107F4DC07E0D4E95B
:100D5000012118F805009047206A401C2062281ED7
:100D6000A5F10105F3DC2046FFF7C2FC2078000660
:100D700002D50220BDE8F0870120FBE770472DE98E
:100D8000FF4F0C461E464FF0FF378BB0D2E90001F3
:100D9000DDF860800A908A46C1F30A5505B93D46E0
:100DA000002108464FF00000BAF1000F00F44000A7
:100DB00005DA00EB80004FF4400101EA50004FEAF1
:100DC0009059B9F1010F00DDB9460A9850EA4A007E
:100DD0000ED044F61050A5F2FF3545432F14B8F15C
:100DE000000F1ED07542291E1EDDC9F100021CE055
:100DF000B8F1010F4FF0000001D0302103E0F243C1
:100E000005E02154401CB042FBDB304600220021AB
:100E100021540B99C1F80880C1E900200FB0BDE84A
:100E2000F08FBD1B6D1CDEE74A4600DA694206A85A
:100E300000F0F4FB06AB93E8070003AB83E8070080
:100E400050460A9900F0ADFC8DE80700A0F500506F
:100E50001F3800900398002D0ADD42F21F014A4618
:100E60000844002303A90390684600F016FF09E038
:100E7000A0F500504A461F38002303A90390684696
:100E800000F020FF8DE807000004000C03D04FF0B5
:100E9000FF30410800E01046B8F1000F03D00022F7
:100EA000009215461EE0751E05D4FFF7C9FE3032CC
:100EB00062556D1EF9D5B3460122084302D00022C7
:100EC0007F1C04E02078302801D100227F1E002AF8
:100ED000099784D01DE0112D07DAFFF7B1FE3032FB
:100EE00062556D1C50EA0102F5D1084302D000980A
:100EF000C8B10EE00021681E05E0235C625C63540B
:100F00002254401E491C8142F7DBAB46A81B401E01
:100F10000990002004F80B000B98099AC0F808808B
:100F2000C0E9002B7AE711264FF0000857E72DE9BA
:100F3000F04F88460446D21D22F0070191B0D1E956
:100F40000001CDE90A0105F037F902460B98C00F00
:100F500001D02D2007E02068810701D52B2002E079
:100F6000202101EAC000032A099001D0072A05DBED
:100F700003464146204600F011FB0BE12078800635
:100F800001D5E06900E00620B8F1650F814606D082
:100F9000B8F1660F18D0B8F1670F70D131E00020BA
:100FA000B9F1110F009001DB112301E009F10103F8
:100FB0000AAA01A90CA8FFF7E2FEDDE90C700026E1
:100FC00009F10105834647E001204B4600904FF0B0
:100FD00000470AAA01A90CA8FFF7D1FEDDE90DB070
:100FE0000C995D46002610B909F101000D18B9EB06
:100FF000050003D4C0F1FF3609F10105A5EB090096
:101000002BE0B9F1010F01DA4FF001090020B9F12D
:10101000110F0090484601DD112300E003460AAAA3
:1010200001A90CA8FFF7ABFEDDE90C704D460026C8
:101030008346207800070AD4AB4500DA5D4601A854
:10104000012D04DD411911F8011C302907D04F454D
:1010500002DA17F1040F04DA012082460FE06D1E58
:10106000EEE7002F02DCED1B3E4403E0781CA842B3
:1010700000DD7D1CB81B00F1010A4FF0004720780D
:10108000000703D4AA4501DB4FF0FF3A0021B7F176
:10109000004F0DF143088DF8431024D002202B237C
:1010A000002F01DA7F422D230A21021EA0F1010048
:1010B00000DC5FB197FBF1FC97FBF1F201FB1C7CBC
:1010C00017460CF1300C08F801CDEEE7A8F101004D
:1010D00003702188090501D5452100E06521A0F1B3
:1010E000010800F8011C09980FA9A1EB0807FF1DD2
:1010F00000B10120411901EBEA70A1693844081AD6
:10110000401EA0612078C00602D42046FFF7DAFA1C
:10111000099828B1D4E901219047206A401C206237
:101120002078C00622D52046FFF7CCFA1EE0002E1C
:1011300004DBB34502DD01A8805D00E03020D4E986
:1011400001219047206A401C2062761CAAF1010010
:101150005FEA000A0AD100F01DFAC0680168405C2D
:10116000D4E901219047206A401C2062281EA5F185
:101170000105DCDC07E0D4E9012118F8010B9047F8
:10118000206A401C2062381EA7F10107F3DC2046CC
:10119000FFF7AEFA032011B041E600002DE9F04F51
:1011A00004460D46D21D22F0070089B0D0E9009711
:1011B0004846394605F000F80246F80F01D02D23C5
:1011C00007E02068810701D52B2302E0202101EAF6
:1011D000C0038DF820300BB1012000E00020032A6D
:1011E000824601D0072A04DB2946204600F0D6F9C2
:1011F0003FE12078800601D40D2500E0E569C7F3C2
:101200000A560D2D49DA00214FEA175B08464FF0C8
:101210000000002F00F4400007DA00EB80004FF4DC
:10122000400100EBD07001EA60008115012901DD69
:101230004FF0FF3100224FEA850CBCF1180F06D3A6
:101240001346ACF118004FF08052C24003E04FF457
:10125000801323FA0CF30CF10C0CBCF1200F04D317
:10126000ACF1200C09FA0CF001E007FA0CF00029AF
:101270004FF0004801DD18B90FE00ED140450CD306
:1012800019EB02095F4121B9404502D19F4329EA88
:101290000209BBEB175F00D0761C2088000502D541
:1012A0007B48784402E07A487844193808AA302309
:1012B00002F80A30037C0AF10101002E0AF1020A49
:1012C00053546A4602DC4FF0300101E04FF0310127
:1012D0004FF001088DF8001002D0A6F2FF3603E0AF
:1012E00059EA470100D06B4E002D02DC2178090736
:1012F00004D54FF002082E218DF80110C4460021BC
:101300000BE0C7F303433F01C35C491C6D1E02F8A9
:101310000830052908F1010801DA002DF1DC00216F
:101320000CE000EB1973491C1B786D1E082902F8AC
:1013300008304FEA091908F1010801DA002DF0DC44
:1013400021688B0602D516E0A8F10108E04505DD0D
:1013500002EB080313F8013C302BF5D0B8F1000F75
:1013600009DD02EB080313F8013C2E2B03D109071A
:1013700001D4A8F10108002D05DD3E2102F8081076
:101380006D1E08F10108407C002E02F8080008F1EB
:10139000010804DA2D20764202F8080002E02B2032
:1013A00002F808000A214FF47A70864208F1010819
:1013B0000BDB96FBF0F3303302F8083096FBF0F3CA
:1013C00008F1010800FB136601E0642E0CDB6420C9
:1013D00096FBF0F3303302F8083096FBF0F308F197
:1013E000010800FB136601E00A2E06DB96FBF1F014
:1013F000303002F8080008F1010896FBF1F001FB1B
:101400001060303002F80800A16908F1010808EB0B
:10141000050202EB0A00081AA0612078C00602D477
:101420002046FFF74FF9216A08AE01EB0A0020625F
:1014300004E0D4E9012116F8010B9047BAF1010A42
:10144000F7D22078C00602D52046FFF73BF96E465A
:1014500009E016F8010B3E280FD0D4E9012190478E
:10146000206A401C2062B8F10108F2D22046FFF742
:101470003FF909B00320BDE8F08F206A28442062BC
:1014800003E0D4E90121302090476D1EEBD3F8E74B
:101490002599000002FCFFFF10B5436913B1AFF3BB
:1014A000008001E0FFF747F9012010BD127800F13C
:1014B00024010A7000224A700122EDE711684FF002
:1014C000FF32E9E710B5436913B1AFF3008001E0E3
:1014D000FFF7D0F9012010BD128800F124018284A9
:1014E0000022C2840122EDE711684FF0FF32E9E7E4
:1014F00070B516460C46054600F044F8036893F8AC
:101500000101012806D0FF2C0FD8185D68B1012019
:101510002C7070BDD3F807013246214603F2071341
:1015200003442846BDE8704018474FF0FF3070BDB7
:1015300000487047B80E00207546FFF7F9FFAE4629
:1015400005006946534620F00700854618B020B5CF
:10155000FEF7EEFEBDE820404FF000064FF000071A
:101560004FF000084FF0000B21F00701AC46ACE84B
:10157000C009ACE8C009ACE8C009ACE8C0098D46B8
:101580007047000010B500F005F8001D10BD00BF49
:10159000997C000000487047D80E00202DE9F041EA
:1015A0001F46044603260168072A01F4006004DB95
:1015B00008B116A505E016A503E008B115A500E0E1
:1015C00015A521F010002060A069C01EA0610FB118
:1015D000401EA0612046FFF775F84FB1D4E9012104
:1015E00038469047206A401C2062C01C206206E0FA
:1015F000206AFAE7D4E9012115F8010B9047761E1D
:10160000F8D22046FFF774F8BDE8F0814E414E0055
:101610006E616E00494E4600696E66002DE9F04726
:10162000814616468AB0354878440DC88DE80D00CD
:1016300032487844801C03AC0DC884E80D0041F6A4
:101640009B300844372190FBF1F290FBF1F5A5F1B6
:10165000800501FB12041B3C02D56442012000E01E
:101660000020DFF898A080460027FA44AAF1BE0ABD
:101670000EE0E0070AD03246684607EB4701012337
:101680000AEB810100F01EFB8DE8070064107F1C4F
:10169000002CEED1194F7F44AE3F19E0E80715D07A
:1016A00007EB04100DF1180A90E80E008AE80E000E
:1016B000C068F04201D1981908903246012306A96A
:1016C00003A800F0FFFA03AB83E807006D10641C69
:1016D000002DE3D14FF0010332466946B8F1000F07
:1016E00003A802D000F0D9FA01E000F0EBFAC9E952
:1016F0000001C9F808200AB0BDE8F0873096000064
:1017000010B50446AFF300802046BDE81040FEF758
:10171000FABD00004FF0013C50F8042B51F8043B97
:101720009A4221D1A2EB0C03934313EACC1317D1B5
:1017300050F8042B51F8043B9A4215D1A2EB0C034C
:10174000934313EACC130BD150F8042B51F8043B0C
:101750009A4209D1A2EB0C03934313EACC13DBD0DA
:101760004FF00000704700BFD01A01BAB1FA81F102
:1017700001F0180122FA01F0CB40C1F12001DBB2E7
:10178000C0B2C01A2CFA01F3D11A914311EAC31165
:10179000E6D1704701491820ABBEFEE726000200E3
:1017A00070475FEA400C08BF91F0000F4FEA8C23AE
:1017B0004FEAC12243EA51514FEA1C5018BF00F5CD
:1017C000F0404FEA300018BF41F000415FEA6C5C26
:1017D00000F02980BCF1FF3F08BF40F08040704717
:1017E000130C06BF12044FF0100C4FF0000C130E38
:1017F00004BF12020CF1080C130F04BF12010CF10C
:10180000040C930F04BF92000CF1020CD30F04BF21
:1018100052000CF1010C11464FF00002A0F11F0024
:10182000A0EB0C00704711F0004F08BF704731F07B
:1018300000413FF4D5AF0B0C06BF09044FF0100C6C
:101840004FF0000C0B0E04BF09020CF1080C0B0F3B
:1018500004BF09010CF1040C8B0F04BF89000CF1CB
:10186000020CCB0F04BF49000CF1010CCCF120039A
:10187000A0EB0C0022FA03F302FA0CF241EA030196
:1018800000F10100704720F07F4C80EA030023F054
:101890007F47ACEB070303F57C5300F0004003F1F6
:1018A000FF032DE980494FEA154B09B44FEA144371
:1018B00025EA0B4E24EA03480FF2042606EB132711
:1018C00049083E785FEA320203FB0667C7F5000766
:1018D00007FB06F64FEA54374FEAD64606F10206F2
:1018E00007FB066CCCF1005C4FEA1C472CEA074C66
:1018F00007FB06F40CFB06F504EB15464FEA9616BB
:1019000034BF00204FF000404FEAD13706FB07FC00
:101910004FEA1C4C0CFB0BF7D21B03FB0CF761EBE3
:1019200007010CFB0EF7B0EB074072EB17420CFB04
:1019300008F734BFA2EB0742B2EB074261EB174155
:101940004FEA0C444FEA910706FB07FC4FEA1C4C98
:101950000CFB0BF7B0EBC74072EB573203FB0CF7F5
:1019600034BFA2EBC742B2EBC74261EB57310CFB6D
:101970000EF7B0EBC70072EB57720CFB08F734BFE1
:10198000A2EBC702B2EBC70261EB5771039F4FEAAC
:10199000816141EA921104EBCC044FEAD1374FEA5E
:1019A000826206FB07FC42EA90124FEA80604FEA2F
:1019B0001C4C0CFB0BF7D21B03FB0CF761EB070174
:1019C0000CFB0EF7B0EB074072EB17420CFB08F76D
:1019D00034BFA2EB0742B2EB074261EB17414FEA7B
:1019E0008C554FEA910704EB9C2406FB07FC4FEA59
:1019F0001C4C0CFB0BF7B0EBC74072EB573203FBF0
:101A00000CF734BFA2EBC742B2EBC74261EB5731D0
:101A10000CFB0EF7B0EBC70072EB57720CFB08F72C
:101A200034BFA2EBC702B2EBC70261EB577115EBF3
:101A30004C254FEA816141EA92114FEA82624FEAF6
:101A4000D13742EA901206FB07FC44F100044FEA4A
:101A500080604FEA1C4C0CFB0BF7D21B03FB0CF70E
:101A600061EB07010CFB0EF7B0EB074072EB17427E
:101A70000CFB08F734BFA2EB0742B2EB074261EB65
:101A8000174115EB1C154FEA813141EA92414FEAAB
:101A9000823242EA90424FEA80304FEA0C7644F1BB
:101AA000000448EA03434EEA0B484FF0000EB2EB45
:101AB000080C71EB030724BF624639464EEB0E0E4D
:101AC0004FF0000B0018524149414BEB0B0BB2EBAE
:101AD000080C71EB03077BF1000B24BF624639460B
:101AE0004EEB0E0E4FF0000B0018524149414BEBEC
:101AF0000B0BB2EB080C71EB03077BF1000B24BF5F
:101B0000624639464EEB0E0E51EA020718BF46F008
:101B1000010616EB0E7655F1000254F1000103D5D3
:101B2000BDE88901BDE80088BDE88901BDE800483D
:101B3000B619524141EB0101A3F1010370478080C6
:101B40007F7E7D7C7B7A7978777676757473727117
:101B500071706F6E6E6D6C6C6B6A6A6968686766CF
:101B600066656464636362616160605F5F5E5E5D61
:101B70005D5C5C5B5B5A5A595958585757565655D5
:101B800055555454535352525251515050504F4F37
:101B90004F4E4E4D4D4D4C4C4C4B4B4B4A4A4A4987
:101BA00049494848484747474746464645454544CA
:101BB0004444444343434342424242414141002B57
:101BC0009C4630D477002BD01CB54FEA370703B4BE
:101BD0004FF010004FF01001BAF1000F06D0BCF129
:101BE000000FDCBF40F0080040F008014FF000009B
:101BF0000FBCBDE810400BF1010BBBF1010F08BF9A
:101C00005FEA170722BF12F1010211F101014FF043
:101C1000004143F1000300F0004043EA0000704738
:101C2000F9D35708D0E746EA064613F1400F4FEACA
:101C300016461FDD13F1200FDFBF16430A460021B1
:101C400020335B42BED0C3F1200746EA064602FAC3
:101C500007F74FEA164646EA0706C3F1200722FABD
:101C600003F201FA07F721FA03F14FF0000342EA09
:101C70000702A7E746EA020646EA06464FEA164684
:101C800046EA0106BCBF46EA0646360C4FF00003A2
:101C90004FF000024FF0000194E72DE9804C9A4686
:101CA000934670B491E8380007C831EA400C48BF49
:101CB00034EA430C03D5FFF7E6FDFFF780FFF0BCE5
:101CC000BDE8008C2DE9804C9A46934670B491E8AB
:101CD000380007C810F0804F08BF13F0804F03D1C1
:101CE00000F005F8FFF76BFFF0BCBDE8008C20F0BA
:101CF0007F4780EA030023F07F4C07EB0C03A3F53A
:101D00007C5300F00040A3F1FE0392F0000F00F0BE
:101D1000B38095F0000F00F077802DE901494FEA7C
:101D200011404FEA144621EA004800FB06FC24EA71
:101D3000064708FB06F607FB08F800FB07F718EB59
:101D400006484CEB164C4FEA124B18EB07484FEA8B
:101D500015464CEB174022EA0B4E0BFB06FC25EA1E
:101D600006470EFB06F607FB0EFE0BFB07F71EEB06
:101D7000064E4CEB164C4FF000061EEB074E4CEB9C
:101D8000174B18EB0B0840F1000018EB0E0B58EB4B
:101D9000000840F100008F1A4FF000013CBFC9431A
:101DA000661B14BFB5EB040C00213CBFC943F61BF6
:101DB0004FEA17444EEA8E0E27EA04454FEA1C47C5
:101DC00004FB07622CEA074C05FB07F70CFB05F642
:101DD00004FB0CFC16EB074642EB174216EB0C46D5
:101DE00042EB1C421BEB060658EB0202414146EA5D
:101DF0009E0601D5BDE80189B619524141EB0101AA
:101E0000A3F10103BDE801894FEA14454FEA1147E8
:101E100024EA054621EA074C05FB07F406FB07F711
:101E20000CFB06F105FB0CFC11EB074144EB1744DE
:101E30004FEA124711EB0C4144EB1C4422EA074CD9
:101E400005FB07F206FB07F70CFB06F605FB0CFC8F
:101E500016EB074642EB174216EB0C4642EB1C45CD
:101E60006A1854F1000148BF7047B619524141EB5E
:101E70000101A3F10103704795F0000F37D04FEA3D
:101E800011424FEA144721EA024624EA074C02FBBA
:101E900007F106FB07F70CFB06F402FB0CFC14EB46
:101EA000074441EB17414FEA154714EB0C4441EB53
:101EB0001C4125EA074C02FB07F506FB07F70CFB64
:101EC00006F602FB0CFC16EB074645EB174516EB36
:101ED0000C4645EB1C42121951F1000148BF7047F6
:101EE000B619524141EB0101A3F1010370474FEADA
:101EF00014454FEA114724EA054621EA074C05FB41
:101F000007F106FB07F70CFB06F24FF0000605FB96
:101F10000CFC12EB074241EB174112EB0C4251EB68
:101F20001C4148BF7047921841EB0101A3F1010326
:101F30007047000070B5164890ED000A154806F08D
:101F400013FFBDEEC00A144890ED041AD0ED030A49
:101F5000B8EEC00A06F03BFFBDEEC00A0E4D443D90
:101F600010EE104A6868001B00EE100A0948B8EE2F
:101F7000C00AB43806F07CFF6868204400EE100AFE
:101F8000BDE870400348B8EEC00A783806F070BF6C
:101F9000200900207C0E002004090020FEE700003C
:101FA00070B53B483B4C012202700025A5602146DC
:101FB0006078394B0978012807D0384E022807D0BD
:101FC000032812D004285BD11FE0012915D057E067
:101FD000012935D0022903D135709FED310A4CE03B
:101FE00003292DD0042908D04AE0012928D002294C
:101FF000F6D135709FED2B0A3FE01D702A4803F0A3
:10200000FAF82A4803F0F7F83AE0012918D02148F5
:102010000229807804D0032912D0042912D02FE09D
:10202000357007F09DFB9FED221B53EC112B07F041
:10203000ABFB9FED211B53EC112B07F0A3FC18E029
:1020400032701DE0401CC0B2A070042806D31D7081
:10205000154803F0D0F8154803F0CDF82570357019
:10206000A07807F07DFB9FED161B53EC112B07F0BA
:102070008BFB07F0FBF800EE100A134806F0F8FEA1
:10208000124806F0E1FEBDE870400F4806F0DCBEE5
:10209000BC08002040090020C0080020C108002022
:1020A000000030C300007D43800D0020A40D0020FF
:1020B000333333333333D33F0000000000A06F408D
:1020C0009A9999999999C9BF7C0E0020400E0020D9
:1020D000014800F05FB90000B00B00200168182330
:1020E000CAB2103AB2FBF3F2054B6FF30901032AAF
:1020F0009B5CC36500D9091D8165084670470000D7
:10210000069E000810B5014600208B698A6A4FF0D0
:10211000C07453B1B3F5005F15D072B1012A0CD071
:10212000022A0AD0032A09D104E01AB1012A06D0F2
:10213000022A03D1C96AC90100D5012010BDC96AAC
:10214000A142FAD010BD002AF7D0012AF2D0022A0B
:10215000F3D0032AF3D010BD30B50468256825F408
:1021600080252560046863608368402B036803D082
:1021700099600068C26030BD9A600068C16030BD7F
:10218000704700001CB509490948CDE9000100234A
:102190001A460121074805F099FA20B1012005F0FF
:1021A00003FC00201CBD4FF0FF301CBD198D000842
:1021B000FD8C00086808002010B50160044602711B
:1021C00008463C2101F0B0FB216800200968486204
:1021D000E0809FED030AA06084ED030A10BD0000BB
:1021E0000000000002681168496A09B2C1800379E1
:1021F00003B14942C180126800215162B0F9061052
:10220000DFED0A0A00EE101A8268B8EEC00A0A442E
:10221000826080EE201A9FED060ADFED060A21EEAD
:10222000000A80EE201A80ED031A704700008244F5
:102230003B4671410AD7A33B10B501220549064828
:10224000FFF7BAFF04480022BDE8104003491030F0
:10225000FFF7B2BF900A0020600D0020D80A0020CE
:1022600010B50448FFF7BEFF0248BDE8104010302B
:10227000FFF7B8BF600D002072B6FEE770470000A0
:1022800070B502F001FBC043124BC2B29FED120ABF
:1022900000211A70084603F1080400BF22FA00F575
:1022A000ED0707D004EB8005491CD5ED000AC9B243
:1022B00030EE800A401CC0B20828EFD3002907D0B6
:1022C00000EE901AF8EE600A80EE201A83ED011AF3
:1022D00070BD000094080020000000002DE9F041CE
:1022E0000446876D00F0DCFA064694F835000025B8
:1022F000022806D08020606584F834500120BDE8B3
:10230000F0812068016821F01601016020684169B0
:1023100021F080014161206C08B9A06C20B12068D7
:10232000016821F0080101602068016821F00101C5
:1023300001600CE000F0B4FA801B052807D92020CA
:102340006065032084F8350084F83450D7E72068AE
:102350000068C007EED194F85C103F208840B86058
:10236000012084F8350084F834500020C7E790F845
:102370003510022903D080214165012070470521D5
:1023800080F835100068016821F00101016000202B
:10239000704700002DE9F84304464FF00009CDF8DE
:1023A000009063484FF41651A56D0068B0FBF1F73B
:1023B0002E6894F85C10082000FA01F131420FD029
:1023C00021680A6852070BD50A6822F004020A60E5
:1023D00094F85C108840A860606D40F00100606572
:1023E00094F85C104FF0010808FA01F0304208D070
:1023F00021684969090604D5A860606D40F00200B3
:10240000606594F85C1004208840304208D0216850
:102410000968890704D5A860606D40F00400606514
:1024200094F85C1010208840304218D02168096868
:10243000090714D5A86020680168490304D500681D
:10244000000308D5A16C07E00168C90503D4016841
:1024500021F008010160216C09B12046884794F8F9
:102460005C1020208840304231D021680968C906BC
:102470002DD5A86094F8350005282068016806D09D
:10248000490347D5006800031DD4616C1CE021F0AE
:10249000160101602068416921F080014161206CD2
:1024A00008B9A06C20B12068016821F00801016022
:1024B00094F85C103F208840A86084F8358084F848
:1024C0003490216D1FE0E16B09B120468847606DB3
:1024D00000282BD0606DC00714D0052084F835008B
:1024E0002068016821F0010101600098401C009003
:1024F000B84203D820680068C007F6D184F8358058
:1025000084F83490E16C002910D001B02046BDE879
:10251000F04308470168C905D5D4016821F01001CE
:10252000016084F8358084F83490CCE7BDE8F88306
:102530000C0000202DE9F041044600F0B1F90646F8
:102540005CB1022084F83500002584F834502068FE
:10255000016821F0010101600DE00120BDE8F0817A
:1025600000F09EF9801B052805D920206065032016
:1025700084F83500F2E720680068C007F0D12268CF
:10258000116820480140D4E901031843D4E9033617
:102590003343184363691843A3691843E369184335
:1025A000236A18430843616A042903D1D4E90B1351
:1025B00019430843106020684069666A20F00701EB
:1025C00030460E43012704280CD1A06A0643E06A76
:1025D00040B12046FFF796FD20B14020606584F8A9
:1025E0003570BAE7206846612046FFF777FD94F81A
:1025F0005C203F2191408160656584F83570002042
:10260000ACE700003F8010F02DE9F0410446866DF4
:1026100090F83400002501280DD0012084F8340002
:1026200094F835700020012F07D084F8340002257B
:102630002846BDE8F0810220FBE7022784F83570C8
:1026400060652046FFF788FD94F85C103F208840C5
:10265000B0602068016841F016010160206C20B173
:102660002068016841F0080101602068016841F0BC
:1026700001010160DCE7000070B5044600F010F9CC
:102680000546601C02D004480078044400F008F9B4
:10269000401BA042FAD370BD000000202DE9F84F86
:1026A000DFF8BCA10022012503264FF00F090AF133
:1026B000040BAAF1040E00BF0B6805FA02F42340D4
:1026C000A34270D10F7907F00307012F01D0022F29
:1026D00016D187684FEA420806FA08FC27EA0C0779
:1026E000D1F80CC00CFA08FC4CEA070CC0F808C082
:1026F0004768A7430C79C4F3001494403C434460FA
:102700000C79E443A4070AD0C4684FEA420C06FAE5
:102710000CF7BC438F6807FA0CF72743C7600C79A6
:1027200004F00304022C12D1D40800EB840CDCF872
:1027300020405707FF0E09FA07F824EA0804D1F8E9
:10274000108008FA07F848EA0408CCF820800468EA
:102750004FEA420C06FA0CF7BC430F7907F0030767
:1027600007FA0CF7274307604C6814F4403F70D019
:102770003C4C276847F480472760246822F0030711
:1027800004F480440094384C07EB040CDCF808484F
:1027900097074FEA177809FA08F7BC43334FB84256
:1027A00002D1002724E054E0314FB84201D1012783
:1027B0001EE0304FB84201D1022719E02E4FB84237
:1027C00001D1032714E02D4FB84201D104270FE0B7
:1027D0002B4FB84201D105270AE02A4FB84201D158
:1027E000062705E0284FB84201D1072700E0082757
:1027F00007FA08F72743CCF80878DAF8004057467C
:10280000D1F804C09C435FEACC2C00D51C433C604B
:10281000DBF800405F46D1F804C09C435FEA8C2C93
:1028200000D51C433C60DEF800407746D1F804C078
:102830009C435FEA8C3C00D51C433C60084F083F3A
:102840003C68D1F804C09C435FEACC3C00D51C43F3
:102850003C60521C102AFFF42FAFBDE8F88F000037
:10286000083C014044380240003001400000024072
:102870000004024000080240000C02400010024028
:102880000014024000180240001C02400069084089
:1028900000D0012070470AB1816170470904FBE74D
:1028A00001488068704700000000002070B50400F7
:1028B00025D094F83D00002520B984F83C502046EE
:1028C00000F052FA242084F83D002068016821F0CD
:1028D000010101602068016841F400410160206845
:1028E000016821F40041016000F0E6FB4D4A616897
:1028F000914201D84C4900E04C49884201D2012064
:1029000070BD4B492368B0FBF1F15E6826F03F06CD
:102910000E435E606368934206D94FF49673594341
:102920004FF47A73B1FBF3F12368491C1E6A26F059
:102930003F06314319626168914210D84900401E38
:10294000B0FBF1F2521CC2F30B02042A01D20420A4
:1029500022E0B0FBF1F0401CC0F30B001CE0A268C9
:10296000F2B301EBC10303EB0116431EB3FBF6F315
:102970005B1C43F480431B0549D092B301EBC102B9
:1029800002EB0111401EB0FBF1F0401CC0F30B0044
:1029900040F4804040F400402168CA694CF6FF735F
:1029A0009A431043C861D4E90710014320680268C4
:1029B00022F0C00211430160D4E903010143206801
:1029C000826848F2FF339A4311438160D4E90501DC
:1029D00008432168CA6822F0FF021043C86001E082
:1029E0000EE016E02068016841F0010101602564F5
:1029F000202084F83D00256384F83E50002070BDFF
:102A000001EB4106431EB3FBF6F35B1CB3E7012069
:102A1000C2E701EB4101401EB0FBF1F0401CC0F3E6
:102A20000B00B7E7A086010080841E0000093D006E
:102A300040420F002DE9FF4F83B09A46DDE9118730
:102A400093460446DDF84090FFF72AFF054694F8C8
:102A50003D00202870D11923012274492046009599
:102A600001F0C4FD0028F5D194F83C00012863D0A2
:102A7000012084F83C0020680168C90703D101687F
:102A800041F0010101602068016821F400610160EA
:102A9000222084F83D00402084F83E000026266471
:102AA000C4F82490A4F82A80608D20856048E062F4
:102AB000CDE9007553465A462046049901F098FC2A
:102AC000002879D1208DD0B1012821D0022820689A
:102AD00024D0416980690090208D032866D80128A0
:102AE0002BD0544902283B464FF00002009557D0A6
:102AF0008846204601F07AFD00285DD13AE0206842
:102B0000416981690091016841F4007101607DE0D3
:102B10002068016821F480610160F0E7016821F418
:102B2000806101602068016841F4006101602068F3
:102B300041698069009069E075E02A46394620467F
:102B400001F0FAFD88BB54E02068016841F400718F
:102B5000016020680069616A0870606A401C6062F8
:102B6000218D491E2185618D491E61852168096974
:102B7000017042E02068016821F4806101602068F2
:102B80000069616A0870606A401C6062208D401EA6
:102B90002085608D401E60853B46002241460095A1
:102BA000204601F023FD00B9CEE705E02A4639466C
:102BB000204601F0C1FD18B1012007B0BDE8F08F3B
:102BC00020680069616A0870606A401C6062208D3C
:102BD000401E81B22185608D401E6085206842695B
:102BE000D243520712D4032903D1016821F4806132
:102BF000016020680069616A0870606A401C606258
:102C0000208D401E2085608D401E6085208D00280F
:102C10007FF462AF202084F83D0084F83E6084F8A1
:102C20003C600020C9E70220C7E700000200100056
:102C30000000FFFF040001002DE9FF4F83B09A461A
:102C4000DDE9119793460446DDF84080FFF728FE42
:102C5000054694F83D0020287FD1192301224049E0
:102C60002046009501F0C2FC002876D194F83C0083
:102C7000012872D0012084F83C0020680168C9074F
:102C800003D1016841F0010101602068016821F46D
:102C900000610160212084F83D00402084F83E005E
:102CA00000262664C4F82480A4F82A90608D20852C
:102CB0002C48E062CDE9007553465A4620460499F7
:102CC00001F014FC70B930E02A463946204601F084
:102CD0006BFD58B1206C042804D12068016841F4D0
:102CE00000710160012007B0BDE8F08F606A2168C3
:102CF00000780861606A401C6062218D491E89B2BB
:102D00002185628D521E628522685369DB435B0711
:102D10000BD469B100781061606A401C6062208D3C
:102D2000401E2085608D401E6085208D0028CBD1FF
:102D30002A463946204601F02DFC0028CAD154F815
:102D40003D0B016841F400710160202004F81E0968
:102D5000E67766770020C6E7FFE70220C3E70000BA
:102D6000020010000000FFFF2DE9F04186B004468C
:102D700014216846FDF771FC2F4A2168DFF8BC80FA
:102D800000242E4812250326042708F1100891423A
:102D90001CD1016841F002010160006802AA00F044
:102DA00002000590C020CDE9000582E8D000694608
:102DB0002348FFF773FCD8F8001041F40011C8F85D
:102DC0000010D8F8000000F4001031E01D4A9142D4
:102DD0002FD1016841F004010160016801F0040194
:102DE0000591016841F0010101600068694600F049
:102DF000010005905015CDE9000502AA124882E8AD
:102E0000D000FFF74BFC4FF48070CDE9000502AA1B
:102E1000694682E8D0000D48FFF740FCD8F8001062
:102E200041F40001C8F80010D8F8000000F40000D8
:102E3000059006B0BDE8F0810054004030380240F3
:102E400000040240005C0040000802400000024014
:102E500002488168027811448160704700000020B8
:102E60000B4810B5016841F400710160016841F43C
:102E700080610160016841F480710160032000F00D
:102E80006FF8002000F006F800F024F8002010BDD4
:102E9000003C024070B50D4D04464FF47A7128781D
:102EA000B1FBF0F00A490968B1FBF0F000F00AFB51
:102EB00048B9102C07D200222146501E00F030F8ED
:102EC00000206C6070BD012070BD0000000000207B
:102ED0000C0000200A4808B5016841F480410160F7
:102EE000006800F4804000900548001F016841F030
:102EF00080510160006800F08050009008BD000023
:102F000044380240002809DB00F01F0201219140F3
:102F10004009800000F1E020C0F800117047000077
:102F2000F0B40E4B1B680C46C3F30223C3F1070534
:102F3000042D00D90425191D072901D2002300E022
:102F4000DB1E012606FA05F1491E214099409E40EC
:102F5000761E16403143F0BC03F046B90CED00E09C
:102F6000064900F0070208684FF6FF03184040EAE0
:102F70000220034A10430860704700000CED00E097
:102F80000000FA052DE9F0470E46050065D0DFF890
:102F90001481D8F80000F7B200F00700B04207D261
:102FA00088F80070D8F8000000F00700B04254D153
:102FB00028683D4C810712D5400703D5206840F4AE
:102FC000E05020602878000703D5206840F4604076
:102FD00020602068A96820F0F0000843206028786D
:102FE000C0072DD0304968680839012812D002285E
:102FF00013D0032811D00968890700292DDA216828
:1030000021F0030101432160FFF74AFC814641F2B0
:10301000883A0EE009688903EFE709688901ECE75F
:10302000FFF73EFCA0EB0901514502D90320BDE8A2
:10303000F0872068696800F00C00B0EB810FEFD1D9
:10304000D8F80010404601F00701B14207D90770D7
:10305000006800F00700B04201D00120E7E72878BF
:10306000400705D52068E96820F4E0500843206057
:103070002878000706D52068296920F4604040EAD6
:10308000C100206000F038F82168084AC1F303113C
:10309000515CC8400649086006480068FFF7FAFE20
:1030A0000020C4E7003C0240083802400E9E0008A1
:1030B0000C0000200400002004480549006809684D
:1030C000044AC1F38221515CC84070470C000020C3
:1030D000083802401E9E0008044805490068096837
:1030E000044AC1F34231515CC84070470C000020D3
:1030F000083802401E9E0008154810B5006810F000
:103100000C02144813D04110042A0FD0082A0ED103
:103110000F4C241F2268236802F03F025B0207D590
:103120002068C0F38810A0FB010106E0084610BD2E
:103130002168C1F38811A1FB00010023FDF70AF902
:103140002168C1F30141491C4900B0FBF1F010BDF9
:10315000083802400024F4002DE9F84F04006ED036
:103160002078DFF84C93C007A9F104054AD009F193
:1031700004000168C1F38101012908D00068C0F38F
:10318000810002280AD1D9F80000400206D528683B
:10319000800337D560680028E1D033E06068B0F57F
:1031A000803F10D0B0F5A02F286810D020F48030D8
:1031B0002860286820F4802028606068A8B1FFF7A4
:1031C0006FFB06460DE0286840F48030F4E740F4D9
:1031D00080202860F7E700BFFFF762FB801B6428B0
:1031E00073D828688003F7D50CE0FFF759FB064633
:1031F00005E000BFFFF754FB801B6428F0D8286867
:103200008003F7D42078DFF8AC8280074FF0000A03
:103210003ED5A748001D016811F00C0F08D00068CA
:10322000C0F3810002280BD1D9F80000400207D476
:103230002868800716D5E068012800D112E033E144
:10324000E068B8B10120C8F80000FFF729FB064686
:1032500005E000BFFFF724FB801B0228C0D82868C8
:103260008007F7D52868216920F0F80040EAC100FE
:1032700028600DE0C8F800A0FFF712FB064604E046
:10328000FFF70EFB801B02281FD828688007F7D4A1
:103290002078000722D5864F87486169703771B161
:1032A00001210160FFF7FCFA064604E0FFF7F8FA97
:1032B000801B022809D838688007F7D50EE0C0F8CF
:1032C00000A0FFF7EDFA064605E082E0FFF7E8FA16
:1032D000801B02287DD838688007F7D42078400703
:1032E00068D5DFF8CCB100270BF13C0BDBF8000010
:1032F000C0000BD4DBF8001041F08051CBF8001077
:10330000DBF80000012700F0805000906B4E306821
:10331000C00510D4306840F480703060FFF7C0FA08
:10332000009005E0FFF7BCFA0099401A022850D837
:103330003068C005F6D55E4EA0686C3601280FD007
:103340000528306810D020F001003060306820F08F
:1033500004003060A068B8B1FFF7A2FA00900FE057
:10336000306840F00100F4E740F004003060F7E717
:10337000FFF796FA0099411A41F28830814266D8E7
:1033800030688007F4D50EE0FFF78AFA009007E076
:10339000FFF786FA0099411A41F28830814256D8E7
:1033A00030688007F4D42FB1DBF8001021F0805191
:1033B000CBF80010A069C8B33D49091D0968C1F3E5
:1033C000810102294AD00228504607D0C8F860007F
:1033D00000E03CE0FFF764FA04463BE04746C8F8EB
:1033E0006000FFF75DFA064605E000BFFFF758FAF8
:1033F000801B02282BD828688001F7D4D4E9070164
:103400000843A16A2E4A490802EB0141626A41EA77
:103410008211084394F82C1040EA0161C9F80010A9
:1034200001203866FFF73CFA044606E03EE000BFA4
:10343000FFF736FA001B022809D828688001F7D563
:1034400034E000BFFFF72CFA001B022802D903204A
:10345000BDE8F88F28688001F4D427E00128F7D070
:10346000D9F80000E26900F4800191421CD1226A7F
:1034700000F03F01914217D147F6C071626A0140E6
:10348000B1EB821F10D1A26A4FF0FF3300F440313C
:1034900003EB5202B1EB024F06D194F82C1000F06E
:1034A0007060B0EB016F01D00120D1E70020CFE7C1
:1034B0000438024000004742800E4742007000403E
:1034C0000000FFFF10B5401EB0F1807F01D3012046
:1034D00010BD4FF0E02460610F21601702F084FE00
:1034E0000020A06107202061002010BD70477047B8
:1034F00010B590F83C20012A22D0012280F83C200F
:10350000CA688C6822F4407222434C6822F48062BC
:1035100022430C6822F4006222430C6922F4805298
:1035200022434C6922F400522243C969002322F449
:1035300080420A4301684A6480F83C30002010BD94
:10354000022010BD70B590F83C20012A32D0012431
:1035500080F83C40022280F83D2003685A689D684C
:1035600022F070060A6832435A60134B02689A428E
:1035700014D0B2F1804F11D0104B9A420ED0104BA4
:103580009A420BD00F4B9A4208D00F4B9A4205D06B
:103590000E4B9A4202D00E4B9A4204D1496825F054
:1035A00080031943916080F83D40002180F83C1071
:1035B000084670BD022070BD0000014000040040BC
:1035C00000080040000C00400004014000400140A1
:1035D0000018004010B5040003D094F83D0010B16D
:1035E00007E0012010BD002084F83C00204600F0D8
:1035F0001FF8022084F83D00211D206802F008FA1F
:10360000012084F8460084F83E0084F83F0084F8E6
:10361000400084F8410084F8420084F8430084F8B4
:10362000440084F8450084F83D00002010BD0000EF
:1036300008B500681149884209D11148016841F074
:1036400001010160006800F00100009008BDB0F1C8
:10365000804FFBD10A48001F016841F00101016061
:103660000068002200F00100009001211C20FFF7FB
:1036700057FCBDE808401C20FFF744BC0000014097
:103680004438024090F83D10012901D001207047D4
:10369000022180F83D100168CA6842F00102CA6048
:1036A00000681149884214D0B0F1804F11D00F4901
:1036B00088420ED00E4988420BD00E49884208D06D
:1036C0000D49884205D00D49884202D00C498842F4
:1036D00004D1816801F00701062903D0016841F097
:1036E000010101600020704700000140000400401B
:1036F00000080040000C0040000401400040014070
:103700000018004070B5044690F83C0000250128E0
:1037100017D0012684F83C60022084F83D00206820
:10372000826822F0770222F47F4282600868502883
:1037300038D00DDC20284FD005DC90B3102811D1F3
:103740004AE0022070BD302846D040280AD13BE034
:1037500060282FD070280DD0B0F5805F03D0B0F571
:10376000005F12D0012584F83D60002084F83C0001
:10377000284670BDCB68D1E90121206802F0BDF96F
:103780002068816841F0770109E0CB68D1E9012127
:10379000206802F0B2F92068816841F480418160BC
:1037A000E1E719E0CA684968206802F07BFA502115
:1037B000206806E0CA684968206802F084FA60213F
:1037C000206802F0A4F9CEE7CA684968206802F0D0
:1037D00069FA40212068F4E7226801461046F0E7C4
:1037E0002DE9F0410D46040003D094F83D0018B1D6
:1037F00008E00120BDE8F081002084F83C0020466C
:1038000000F040F8022084F83D002068816844F20E
:10381000070291438160211D206802F0F9F82268B7
:1038200090689169166A2B68AF69034340F20330D0
:10383000814341EA0721A868EF6908434FF6FC413C
:103840008843E96840EA0720014328692F6A00019C
:1038500040EA0730084369686D6926F0AA0646EA1F
:103860000515294393602268906154F8460B016264
:10387000012004F81F09E0752076E0762077A07516
:103880000020B7E730B587B0044614216846FCF73E
:10389000E4FE214824681F4D00221F4910380223EE
:1038A000AC4216D10C6844F002040C60096801F0C7
:1038B00002010591016841F001010160006869465B
:1038C00000F001000590C0200090CDE901321348BE
:1038D00019E0134DAC421AD10C6844F004040C609A
:1038E000096801F004010591016841F008010160D7
:1038F0000068694600F0080005904FF440500090C1
:10390000CDE901320748CDE90323FEF7C7FE07B032
:1039100030BD00000004004040380240000002407A
:1039200000080040000C024070B590F83E6004466C
:1039300090F83F5090F8423090F84320022021B197
:1039400004290ED0012E1BD114E0012E18D1012B19
:1039500016D184F83E0084F842000122002120683C
:1039600020E0012D0CD1012A0AD184F83F0084F80F
:10397000430014E0012D03D1012B01D1012A01D014
:10398000012070BD84F83E0084F83F0084F84200B6
:1039900084F8430001220021206802F0A1F80122EE
:1039A0000421206802F09CF82068016841F00101C0
:1039B0000160002070BD70472DE9F04104460068A9
:1039C000C66805694FF00007A90713D5B10711D5DF
:1039D000F91E016101202077206880698007204658
:1039E00002D0FFF7E8FF04E000F0A8F8204600F05E
:1039F0003AF92777680716D5700714D521686FF054
:103A000004000861022020772068806910F4407F5C
:103A1000204602D0FFF7CFFF04E000F08FF82046E9
:103A200000F021F92777280715D5300713D521682D
:103A30006FF008000861042020772068C0698007C3
:103A4000204602D0FFF7B7FF04E000F077F82046E9
:103A500000F009F92777E80616D5F00614D5216895
:103A60006FF010000861082020772068C06910F40A
:103A7000407F204602D0FFF79EFF04E000F05EF892
:103A8000204600F0F0F82777E80708D0F00706D0C6
:103A900021686FF001000861204600F049F928060E
:103AA00008D5300606D521686FF0800008612046F1
:103AB000FFF71CFD680608D5700606D521686FF073
:103AC00040000861204600F0AFF9A8060AD5B0060C
:103AD00008D521686FF0200008612046BDE8F0415C
:103AE000FFF705BDBDE8F08110B586B0044614218E
:103AF0006846FCF7B2FD0E492068884216D10D4891
:103B00000021026842F010020260006800F010001C
:103B100005904FF4206000900220CDE901010120C2
:103B2000CDE9031069460448FEF7B8FD06B010BDA4
:103B3000000001403038024000100240704770B56C
:103B4000044690F83C0000260D4601280FD00120C5
:103B500084F83C006AB1042A1DD0082A2FD00C2A10
:103B60003FD00126002084F83C00304670BD022082
:103B700070BD206801F0D4FF2068816941F0080120
:103B800081612068816921F0040181612068816977
:103B90002A69114311E0206801F0F2FF2068816971
:103BA00041F4006181612068816921F48061816153
:103BB000206881692A6941EA02218161D2E720688F
:103BC00002F014F82068C16941F00801C161206861
:103BD000C16921F00401C1612068C1692A691143EA
:103BE00011E0206802F036F82068C16941F40061F4
:103BF000C1612068C16921F48061C1612068C16927
:103C00002A6941EA0221C161ACE710B5040003D082
:103C100094F83D0010B107E0012010BD002084F8A9
:103C20003C00204600F01EF8022084F83D00211DD3
:103C3000206801F0EDFE012084F8460084F83E0083
:103C400084F83F0084F8400084F8410084F8420082
:103C500084F8430084F8440084F8450084F83D006B
:103C6000002010BD7047704710B50446022249B1CC
:103C700004290ED0082913D094F84100012816D049
:103C8000012010BD94F83E000128F9D184F83E20AF
:103C90000FE094F83F000128F2D184F83F2008E0BB
:103CA00094F840000128EBD184F8402001E084F82A
:103CB00041200122206801F013FF16492068164AAE
:103CC000884201D0904203D1436C43F400434364E3
:103CD0002068884213D0B0F1804F10D00F4988423D
:103CE0000DD00F4988420AD00E49884207D0904231
:103CF00005D00D49884202D00C49884204D1816820
:103D000001F00701062903D0016841F001010160BB
:103D1000002010BD000001400004014000040040EC
:103D200000080040000C0040004001400018004026
:103D30002DE9F041374900680968884268D1364C5E
:103D400000252079401CC0B220710A2802D32571B9
:103D500000F08AFEE078401CC0B2E070052815D360
:103D6000E570FEF77DFA94ED020A2C48B8EE400AA1
:103D7000D0ED030A30EE800ABCEEC00A84ED020AE0
:103D800001F02EFBFEF77CFA01F02EFD244F4FF0E0
:103D900001084FF44876387840B184F80580E0682F
:103DA000401CE060B04210D3E6600EE0607901286C
:103DB0000FD1E068B0420CD16571E5602078401CFD
:103DC0002070FEF7EDF8387818B1A079012809D0F5
:103DD00012E084F806802069401C2061B0420BD3B9
:103DE000266109E02069B04206D1A57125612078DD
:103DF000401C2070FEF7D4F80A480178012907D149
:103E00006169491C6161B1F5FA7F01D30570656193
:103E1000BDE8F081480A002040090020600D002024
:103E200094080020BC080020704738B5044690F87C
:103E30004200202801D0022038BD51B14AB10120F2
:103E4000206300206063204602F0EAF8216B01291C
:103E500001D0012038BD21680A68496800912168B5
:103E60000C3151E8002F42F0100241E80023002BF2
:103E7000F5D138BD10B50C460D4A0168914216D1F6
:103E800000F01EF80B49224601F1800005F0C5F84C
:103E900080210848FCF7E1FB802206490648FFF72D
:103EA000C4FF06480068016821F00801016010BDE8
:103EB00000100140540C0020200B0020B00B00200B
:103EC00010B504460068406994F84110C0F3C01072
:103ED000212911D180B12068143050E8001F21F051
:103EE000800140E80012002AF5D1A06B08B1FEF76E
:103EF000F5F9204601F09EFF2068406994F84210D1
:103F0000C0F38010222911D180B12068143050E80C
:103F1000001F21F0400140E80012002AF5D1E06BBB
:103F200008B1FEF7DBF9204601F05DFF002010BD6F
:103F300070470000F8B5016804460868CA684B6914
:103F400010F00F0F4FF0000559D003F0010602F4F6
:103F50009077374365D0C10705D0D10503D5616C93
:103F600041F001016164410705D5D90703D0616CB7
:103F700041F002016164810705D5D90703D0616C66
:103F800041F004016164010707D502F020013143CB
:103F900003D0616C41F008016164616C00293AD082
:103FA000800604D5900602D5204601F051FF206816
:103FB0004069616CC0F38010090700D460B32046EB
:103FC00001F011FF20684069400621D520681430B7
:103FD00050E8001F21F0400140E80012002AF5D10E
:103FE000E06BA8B172490165E06BFEF7C0F90028EB
:103FF00011D0E06B016D01B0BDE8F04008478306C9
:104000000FD593060DD52046BDE8F84001F020BF3E
:104010002046FFF78DFFF8BD2046FFF789FF656456
:10402000F8BD266B2023012E7ED1C6067CD5D60690
:104030007AD508684868009048694FF00206400643
:104040004DD5E26B106840684FF480770004000C97
:104050003AD0A18D814237D9E085D069B8422DD0C0
:1040600020680C3050E8001F21F4807140E80012F5
:10407000002AF5D12068143050E8001F21F001011A
:1040800040E80012002AF5D12068143050E8001FE3
:1040900021F0400140E80012002AF5D184F84230B6
:1040A000256320680C3050E8001F21F0100140E823
:1040B0000012002AF5D1E06BFEF710F96663A08DBF
:1040C000E18D401A81B206E0A18D8142A8D1D0696C
:1040D000B842A5D166632046FFF7CCFEF8BDA08D9F
:1040E000E18D401A81B2E08D0028F7D00029F5D08B
:1040F00020680C3050E8002F22F4907240E800272E
:10410000002FF5D12068143050E8002F22F0010272
:1041100040E80027002FF5D184F84230256320685D
:104120000C3050E8002F00E006E022F0100240E8DA
:104130000023002BF3D1CDE705062BD5150629D595
:1041400094F841002128C9D1A068B0F5805F01D161
:104150002069B0B1206A411C216221680078486062
:10416000E08C401E0004000CE084B7D12068C168D8
:1041700021F08001C1602068C16841F04001C16048
:10418000F8BD206A0088C0F308004860206A801CDF
:104190002062E5E74006F3D55006F1D5CA6820460F
:1041A00022F04002CA6084F8413000F007F9F8BDFF
:1041B000EB5C000870B5040004D094F841000025C1
:1041C00010B106E0012070BD84F84050204600F098
:1041D00023F8242084F841002068C16821F40051AC
:1041E000C160204601F096FE2068016921F49041EB
:1041F00001612068416921F02A0141612068C1689C
:1042000041F40051C1606564202084F8410084F8C5
:1042100042006563002070BDF0B587B006461421EA
:104220006846FCF71AFA354F3068002534490222F7
:1042300003230724B84238D131481430076847F0C7
:1042400010070760006800F010000590086840F053
:10425000010008600868694600F0010005905802F6
:104260008DE82500CDE903342648FEF717FA274CE0
:10427000254820604FF00060C4E901054014C4E9FE
:1042800003506561A561E561256220466562FEF720
:1042900051F908B1FDF7F0FFF46300221146252023
:1042A000A663FEF73DFE252023E0194EB04222D141
:1042B00013481030066846F400360660006800F4C3
:1042C00000300590086840F00800086008686946FA
:1042D00000F00800059060208DE82500CDE903344A
:1042E0000C48FEF7DBF9002211462620FEF718FEE7
:1042F0002620FEF707FE07B0F0BD000000100140C9
:10430000303802400000024040640240B00B002000
:1043100000440040000C0240704770472DE9F8430C
:10432000044690F84100984616460D46202802D0D3
:104330000220BDE8F88385B17EB1002060642120B1
:1043400084F84100FEF7ACFAA6848146E684A068B2
:104350002027B0F5805F02D003E00120E9E7206963
:1043600010B12E4600250EE000260CE080212046EC
:1043700001F0A6FEA8B9C6B116F8010B2168486085
:10438000E08C401EE084E08C4B464FF00002CDF8FC
:1043900000800028EAD14FF04001204601F090FE55
:1043A00040B184F841700320C3E735F8020BC0F335
:1043B0000800E3E784F841700020BAE77047FEE7A1
:1043C00001684A69D24352050FD46FF480624A6192
:1043D000002140F8301F202242738173026942F0AD
:1043E0000402026101730120704700207047000041
:1043F0002DE9F84F0446006889460B9D01689846F0
:10440000174641F4806101602068016841F48071C1
:10441000016000954FF0011B0022594620460A9B7F
:1044200000F0E4F84FF4007A40B120680068C0055D
:1044300001D5C4F840A00320BDE8F88F216809F039
:10444000FE0008612B46284920460A9A00F016F91A
:10445000F0BB20684169806900902A4620460A998D
:1044600000F0A2F940B1206C04283AD1206801681C
:1044700041F40071016034E0FEB2B8F1010F09D0DF
:104480002168380A08612A4620460A9900F08CF90A
:104490000028E8D1206806612A4620460A9900F0E3
:1044A00083F90028DFD12068016841F48071016040
:1044B00000950022594620460A9B00F097F80028F4
:1044C000B3D1216809F0FF0040F00100086100E06D
:1044D00007E02B46044920460A9A00F0CFF800284E
:1044E000AAD00120A8E70000020001002DE9F8434E
:1044F000044600680D46DDE90897016898461646AF
:1045000041F4807101604B4600224FF001112046BA
:10451000009700F06BF848B120680068C00502D52C
:104520004FF4007020640320BDE8F883216805F093
:10453000FE0008613B464A461549204600F09EF8B9
:1045400088B920684169806900903A46494620460A
:1045500000F02AF948B1206C042804D120680168D1
:1045600041F4007101600120DEE7F5B2B8F1010FFE
:1045700009D02168300A08613A464946204600F0D1
:1045800013F90028E7D1206805610020CCE700007E
:104590000200010070B516460D4604461EE0204696
:1045A000FFF70EFF08B1012070BD681C16D0FEF7A2
:1045B00077F9801BA84200D885B920684069C043BC
:1045C00040070BD5002044F8300F20216173A07301
:1045D000216941F0200121612073E4E720684069EE
:1045E000C0434007DBD4002070BD00002DE9F04738
:1045F000984617460D460446C1F30746DDF820905D
:104600002AE000BFB8F1FF3F26D0FEF749F9A0EB42
:104610000901414502D8B8F1000F1DD12068012ED3
:1046200016D0806925EA00000004000C12D000209A
:10463000B84211D1002044F8300F20216173A073DB
:10464000216941F02001216120730120BDE8F0873C
:104650004069E7E70120EBE72068012E0AD0806976
:1046600025EA00000004000C06D00020B842C9D0A2
:104670000020EBE74069F3E70120F7E72DE9F04779
:10468000984616460D4604464FF000094FF0200AA2
:10469000C1F3074723E020684069C043400515D4B3
:1046A0002068016841F40071016021686FF4806046
:1046B0004861C4F8309084F83DA084F83E90216CA5
:1046C00041F00401216484F83C9021E0701C06D084
:1046D000FEF7E6F8A0EB0800B04203D816B1012FB0
:1046E0001FD021E02068012F15D0806925EA000045
:1046F0000004000C18D000BF44F8309F84F80DA0CF
:1047000084F80E90216941F02001216184F80C9019
:104710000120BDE8F087406925EA00000004000C94
:10472000EAD12068406901E02068806925EA00003C
:104730000004000CAFD1ECE72DE9F04100259046D4
:104740000E460446202728E04069C043C0060CD42A
:1047500054F8301B6FF01000486144F81059677727
:10476000A577206A2062257714E0FEF799F8A0EB80
:104770000800B04200D886B920684069C0434006AE
:104780000BD544F8305F6773A573206940F02000B3
:10479000206125730120BDE8F08120684169C9438B
:1047A0004906D1D40020F6E770B516460D460446FA
:1047B0001EE02046FFF704FE08B1012070BD681C12
:1047C00016D0FEF76DF8801BA84200D885B9206886
:1047D0004069C04300060BD5002044F8300F20216B
:1047E0006173A073216941F0200121612073E4E726
:1047F00020684069C0430006DBD4002070BD000083
:1048000010B50E4C002202212046FEF744F800F0BD
:1048100017F8012208212046FEF73DF800F010F8B5
:10482000002208212046FEF736F800F009F820465D
:104830000122BDE810400221FEF72DB80000024021
:104840000020401CC0B20A28FBD370470C4800B5BA
:10485000016887B041F0010101600068694600F01D
:10486000010005900A200090022003901120019081
:104870000448FDF713FF00F0B9F807B000BD0000D1
:10488000303802400000024008B501236A46DD21AD
:10489000982000F01FF89DF8000008BD10B50C4CE2
:1048A000012202212046FDF7F6FFFFF7C9FF012292
:1048B00008212046FDF7EFFFFFF7C2FF0022082185
:1048C0002046FDF7E8FFBDE81040FFF7B9BF000044
:1048D000000002403EB54FF47A748DE81C000A4691
:1048E000014601230348FEF7A5F808B100203EBDAC
:1048F00001203EBDAC0900202DE9F0410024134EFB
:10490000074625466006040E012208213046FDF7C1
:10491000C2FFFFF795FF02213046FDF7B7FF08B150
:10492000641CE4B2002208213046FDF7B4FFFFF713
:1049300087FF6D1CEDB2082DE4D327B1FFF760FFB0
:104940002046BDE8F081FFF7A9FFF9E7000002402B
:1049500070B5154E05460024280601D5012200E059
:10496000002202213046FDF796FFFFF769FF012282
:1049700008213046FDF78FFFFFF762FF0022082174
:104980003046FDF788FF072C04D101220221304672
:10499000FDF781FF6806050EFFF752FF641CE4B2C5
:1049A000082CD9D370BD00000000024010B50E4C99
:1049B000012202212046FDF76EFF01220821204638
:1049C000FDF769FFFFF73CFF002202212046FDF7BB
:1049D00062FFFFF735FF002208212046FDF75BFF4D
:1049E000BDE81040FFF72CBF0000024010B50A4C94
:1049F000002202212046FDF74EFF01220821204619
:104A0000FDF749FFFFF71CFF20460122BDE81040DB
:104A10000221FDF740BF00000000024070B5104DBC
:104A2000012202212846FDF736FFFFF709FF012288
:104A300008212846FDF72FFFFFF702FF0221284635
:104A4000FDF724FF08B1012400E000240022082122
:104A50002846FDF720FFFFF7F3FE204670BD00005B
:104A600000000240FDF78EBB10B5FDF719FFBDE851
:104A7000104002F04DBE000070B5074D0446287886
:104A8000844208D00CB1012200E000220421034836
:104A9000FDF701FF2C7070BD840800200004024067
:104AA0000020FFF7E9BF000001480078FFF7E4BFEE
:104AB000BC08002070B5164890ED000A154804F0B7
:104AC00053F9BDEEC00A144890ED041AD0ED030A64
:104AD000B8EEC00A04F07BF9BDEEC00A0E4D303DC1
:104AE00010EE104A6868001B00EE100A0948B8EE84
:104AF000C00A783804F0BCF96868204400EE100A57
:104B0000BDE870400348B8EEC00A3C3804F0B0B9C4
:104B100098080020400E0020F00800202DE9FE4FEC
:104B2000002793468A4681463E463D463C464FF422
:104B3000C87802AA01A9684600F01EF8BDF9000075
:104B40000744BDF904000644BDF9080005440520EA
:104B5000FDF792FD641C4445EBDB404697FBF0F10A
:104B6000A9F8001096FBF8F195FBF8F0AAF80010F0
:104B7000ABF80000BDE8FE8F7CB514460D46064636
:104B80006B4606224321682000F068F800280BD10C
:104B9000BDF8001049BA3180BDF8021049BA298029
:104BA000BDF8041049BA21807CBD10B5FFF74EFE58
:104BB00080216B2000F0C1F86420FDF75DFD00212D
:104BC0006B2000F0BAF8032000F083F8002000F01A
:104BD0007BF8322000F09AF80021382000F0ADF880
:104BE00000216A2000F0A9F80021232000F0A5F898
:104BF0008021372000F0A1F8752000F011F8682816
:104C000001D0012010BD01216B2000F096F8002199
:104C10006C2000F092F8322000F078F8002010BDEF
:104C200010B50446FFF7C2FED020FFF791FEFFF754
:104C3000F5FE2046FFF78CFEFFF7F0FEFFF7B6FE0D
:104C4000D120FFF785FEFFF7E9FE0020FFF754FEB5
:104C50000446FFF7CBFE204610BD00002DE9F041D1
:104C60001D4614460F460646FFF7A0FE7006000ECE
:104C7000FFF76EFEFFF7D2FE20B1FFF7B7FE01206F
:104C8000BDE8F0813846FFF763FEFFF7C7FEFFF788
:104C90008DFE012000EB4600C0B2FFF759FEFFF782
:104CA000BDFE09E0012C0DD05FF00100FFF724FEEE
:104CB000641E05F8010BE4B2002CF3D1FFF796FE59
:104CC0000020DDE70020F1E7C006010E1C2000F007
:104CD00034B8C006010E1B2000F02FB8BC2801D349
:104CE000012110E0622801D302210CE02A2801D31F
:104CF000032108E0142801D3042104E00A2801D389
:104D0000052100E006211A2000F017B810B504466E
:104D10004FF47A70844201D9044602E0042C00D298
:104D20000424B0FBF4F0401EC1B2192000F005F8D5
:104D30006008BDE81040FFF7D1BF70B50C460546CE
:104D4000FFF734FED020FFF703FEFFF767FE50B9F0
:104D50002846FFF7FDFDFFF761FE2046FFF7F8FD4F
:104D6000FFF75CFE18B1FFF741FE012070BDFFF7B1
:104D70003DFE002070BD2DE9F0411E4615460F4650
:104D80000446FFF713FE6006000EFFF7E1FDFFF794
:104D900045FE60B93846FFF7DBFDFFF73FFE002414
:104DA0000CE0305DFFF7D4FDFFF738FE20B1FFF7D0
:104DB0001DFE0120BDE8F081641CE4B2AC42F0D3DA
:104DC000FFF714FE0020F5E7094808B5016841F433
:104DD000800101600068002200F48000009011460C
:104DE0003A20FEF79DF8BDE808403A20FEF78AB861
:104DF000303802402DE9F04387B014216846FBF7B4
:104E00002CFC37480024016841F00401016001686E
:104E100001F004010591016841F080010160016821
:104E200001F080010591016841F001010160016814
:104E300001F001010591016841F002010160016882
:104E400001F002010591016841F010010160016863
:104E500001F010010591016841F00801016000684E
:104E6000204F00F00800059001220A213846FDF786
:104E700012FDDFF87480002204214046FDF70BFD8F
:104E8000DFF868904FF4AA46002231464846FDF705
:104E900002FD0125CDE90054694638460294FDF72C
:104EA000FDFB0A2000901120CDE9010502200390AE
:104EB00069463846FDF7F2FB04200090CDE9015425
:104EC000694640460394FDF7E9FB0096CDE901549D
:104ED000694648460394FDF7E1FB07B0BDE8F0835F
:104EE000303802400000024000040240001002403E
:104EF0000D4810B50B4901600C49416000214FF489
:104F000080428160C0E9031241618161C161016237
:104F1000FDF7CCFC002803D0BDE81040FDF7ACB98C
:104F200010BD00000054004058090020801A0600FF
:104F30000D4810B50B4901600C49416000214FF448
:104F400080428160C0E9031241618161C1610162F7
:104F5000FDF7ACFC002803D0BDE81040FDF78CB98C
:104F600010BD0000005C0040AC090020A0860100DC
:104F700010B596B000240F941094119412941394C9
:104F80001C2168461494FBF768FB202107A8FBF757
:104F900064FB2C482A4901600721C0E9011440F252
:104FA000E731C0E9031444618461FEF713FB08B1E3
:104FB000FDF762F94FF480500F900FA92148FEF7DA
:104FC000A1FB08B1FDF758F91E48FEF71EFE08B117
:104FD000FDF752F9139413A91A481494FEF7B2FA84
:104FE00008B1FDF749F96020CDE90004029403946B
:104FF000049405940022694612480694FEF79FFD2A
:1050000008B1FDF739F9042269460E48FEF797FD0D
:1050100008B1FDF731F90794089409944FF4005052
:105020000A94CDE90B4007A906480E94FEF760FAF2
:1050300008B1FDF721F90348FEF756FD16B010BD83
:1050400000000140000A002010B586B00024164878
:10505000009401940294039404944FF080410594C9
:1050600001605321C0E9011440F2E731C0E90314A3
:105070008461FEF7AFFA08B1FDF7FEF84FF48050F7
:10508000009069460848FEF73DFB08B1FDF7F4F8CB
:10509000049404A904480594FEF754FA002801D0AA
:1050A000FDF7EAF806B010BD480A002010B58CB034
:1050B00024216846FBF7D1FA0024164809941449C4
:1050C0000A94C0E900144FF6FF71C0E9024104617F
:1050D00084610320CDE900040120CDE90204092107
:1050E0000491CDE90540CDE9074169460948FEF73D
:1050F00077FB08B1FDF7C0F8099409A905480A949F
:10510000FEF720FA002801D0FDF7B6F80CB010BD6C
:1051100000040040900A002010B58CB0242168469D
:10512000FBF79BFA00241648099414490A94C0E935
:1051300000144FF6FF71C0E902410461846103204D
:10514000CDE900040120CDE9020409210491CDE953
:105150000540CDE9074169460948FEF741FB08B122
:10516000FDF78AF8099409A905480A94FEF7EAF9B7
:10517000002801D0FDF780F80CB010BD00080040F9
:10518000D80A00200C4810B50A4901604FF4E131FB
:105190004160002181600C22C160C0E9041281617C
:1051A000C161FFF707F8002803D0BDE81040FDF704
:1051B00063B810BD00100140200B00200C4810B552
:1051C0000A4901604FF4E1314160002181600C2205
:1051D000C160C0E904128161C161FEF7EBFF0028E4
:1051E00003D0BDE81040FDF747B810BD00440040B3
:1051F000680B0020FEE710B5044681898068012213
:10520000FDF749FBA18A01222069FDF744FB00203C
:10521000E061616839B1042909D008292168096869
:1052200009D0086410BD21680968486310BD216871
:105230000968886310BDC86310BD2DE9F0410446BC
:1052400006A890E8E0502160C4E90123A581266109
:10525000A78284F818C00021C4E9071E1846294611
:105260000122FDF718FBA18A00222069FDF713FB3C
:10527000D4E90001FEF7F8FC606848B104280CD0BE
:1052800021680828E06909680CD00864BDE8F0814D
:105290002168E06909684863F8E72168E0690968FE
:1052A0008863F3E7C863F1E70146C069002803DDBE
:1052B000096A884205DB7047FDDA096A494288427B
:1052C000F9DD08467047000070B586B0002502A9D8
:1052D00050264FF4804081E861000D4C8010CDE9EC
:1052E000000423462A460B490B48FFF7A6FF02A9F4
:1052F000201581E861008010CDE9000406482346AE
:10530000042204492430FFF798FF06B070BD000066
:1053100000100240000A0020800D00200846914243
:1053200001DD104670479842FCDA1846704710B508
:1053300004460068C26820465342FFF7EFFFE06171
:105340002046FFF7B1FFE0610028207E1EDB40B160
:105350000022A189A068FDF79EFA207E18B10122E3
:1053600002E00122F5E70022A18A2069FDF793FA05
:105370006068B8B104281DD00828E06922D0002850
:1053800000DA404221680968086410BD08B10122B2
:1053900000E00022A189A068FDF77DFA207E0028A8
:1053A000E1D1DCE7E069002800DA404221680968C1
:1053B000486310BDE069002800DA404221680968AE
:1053C000886310BD002800DA404221680968C8637C
:1053D00010BD10B5FFF7E9FBBDE8104002F074BE48
:1053E000074A10B5111F081F02F0BCFD044C083C11
:1053F00094ED020A01F072FC84ED020A10BD000077
:1054000020090020FEE770B5002404F1B000C0B20E
:1054100000F0B0F8002000F0ADF8102000F0AAF87D
:105420000025002000F0B8F86D1CEDB2802DF8D3F7
:10543000641CE4B2082CE8D370BD000070B5C8202D
:10544000FDF71AF9044D0024285D00F093F8641C60
:10545000E4B2172CF8D370BD1808002010B504462C
:10546000B031C8B200F086F8102040EA141000F005
:1054700081F804F00F00BDE8104000F07BB8000098
:105480002DE9F047203A0024089E0F468146D5B208
:105490007F2803D900208F1C8146FFB2102B39468C
:1054A00012D0FFF7DBFF1B4905EB450001EB400580
:1054B000285D0EB1C043C0B200F06EF8641CE4B2C7
:1054C000062CF5D3BDE8F087FFF7C8FFDFF848806A
:1054D00004EB051118F801000EB1C043C0B200F092
:1054E0005BF8641CE4B2082CF2D37F1CF9B2484686
:1054F000FFF7B4FF0024474604EB05103844007A58
:105500000EB1C043C0B200F047F8641CE4B2082CEE
:10551000F2D3D7E710000020380200202DE9F8432D
:105520001E461746894604460025DDF8208014E013
:10553000334649462046CDF80080FFF7A1FF0C2EE8
:1055400010D00834E4B27A2C01D90C2E0CD0782C6F
:1055500001D9102E08D06D1CEDB27A5D002AE7D17A
:10556000BDE8F883A41DEDE709F10100002400F077
:10557000FF09F0E701B584B001214FF4807204A85F
:105580008DE807000B46002278210248FDF754FB06
:1055900005B000BD5809002001B584B001214FF4C9
:1055A000807204A88DE807000B464022782102484B
:1055B000FDF742FB05B000BD5809002010B5FFF70C
:1055C0003DFFBDE81040FFF71EBF2DE9F041A2B03E
:1055D0001D4616460F46804629AB802101A8289A11
:1055E000FAF754FF0446334601AA3946404600956F
:1055F000FFF794FF22B02046BDE8F08110B5324994
:105600008AB032A009780023CDE900010C221946A6
:105610007820FFF7DAFF2E480DF1140C0078C4094A
:10562000C0F38013C0F34012C0F300118CE81E00D9
:10563000C0F3C001C0F38002C0F3400300F00100DA
:10564000CDE9010323A00090CDE9032100230C2222
:1056500019461846FFF7B9FF244925A00023097809
:105660000C22CDE9000102217220FFF7AEFF224893
:10567000C06804F049FBCDE9020120A0002300909E
:105680000C2202211846FFF7A0FF2048C06804F052
:105690003BFBCDE902011EA0002300900C22042157
:1056A0001846FFF792FF1F48006804F02DFBCDE974
:1056B00002011DA0002300900C2206211846FFF7CE
:1056C00084FF0AB010BD00004109002025640000DD
:1056D0009408002025642D25642D25642D25642D36
:1056E00025642D25642D25642D25640040090020A6
:1056F0002530326400000000600D00204C656674A7
:105700003A252E3266636D2F73202000700D002025
:1057100052696768743A252E3266636D2F732020B4
:1057200000000000200900205961773A25662020FA
:105730000000000010B529482DED028B9FED288A4E
:1057400090ED042A90EC030AF0EE481A254803F085
:105750004FFB2248F0EE481A143090EC030A90ED0B
:10576000042A20483C3003F043FB1C48F0EE481A62
:10577000283090EC030A90ED042A1A48783003F0A0
:1057800037FB1648F0EE481A3C3090EC030A90EDD7
:10579000042A1448B43003F02BFB104C1148083C89
:1057A00094ED010AB8EEC00A03F062FB94ED010A21
:1057B0000C48B8EEC00A3C3003F05AFB0948B0EE82
:1057C000480A783003F054FBB0EE480ABDEC028B77
:1057D0000448BDE81040B43003F04ABBC8080020BC
:1057E00000000000C80D002070B52A482DED028B86
:1057F000017800294BD04178E1B35E214160FFF789
:1058000059F9254890ED030A244803F0ADFA2448DD
:10581000FDEEC08A90ED030A20483C3003F0A4FA64
:105820001C48BDEEC08A0830B8EEE80A90ED041AB4
:10583000D0ED030A03F0CBFA1648BDEEC00A1C30C7
:1058400010EE104A90ED041AD0ED030AB8EEC80A23
:1058500003F0BDFABDEEC00A2146124810EE105A00
:10586000FFF765FDBDEC028B2946BDE870400E4890
:10587000FFF75DBD0D4944F620620968914201D9E8
:105880004B2100E082214160FCF754FBB9E7BDECFD
:10589000028B70BDC0080020600D0020C80D0020E4
:1058A000700D0020800D0020A40D0020480900206C
:1058B0007047704710B500F079F80249022008706F
:1058C00010BD0000240900202DE9F0410C4D0024FA
:1058D0002E1F10E0FCF7E4FF04EB440205EB82010D
:1058E000D1E901373B44834203D8886055F8220050
:1058F0008047641CE4B230788442EBD3BDE8F08189
:1059000028090020FDF7A4BA30B593B030216846CD
:10591000FAF7A3FE14210CA8FAF79FFE1D480025F4
:10592000016841F080510160006800F080501190E2
:105930001948016841F4804101600068022400F4C4
:105940008040119001200090000401908001CDE979
:10595000064008AA0420A82182E813000B9068469C
:10596000FDF7FAFB08B172B6FEE70CA90F2081E83B
:1059700031004FF4A0500F904FF48050109005214B
:105980000CA8FDF7FFFA002801D072B6FEE713B0AD
:1059900030BD0000403802400070004002480168FD
:1059A00041F470010160704788ED00E010B5FFF729
:1059B00077F8FFF757F8FFF701FE00F0C7FBFCF799
:1059C0005DFCFFF781FCFCF737FCFFF702FDFFF7FA
:1059D000B1FE04A1094800F0D5FBBDE8104008481D
:1059E000FDF750BE3D3D3D2053797374656D2049F0
:1059F0006E6974203D3D3D0D0A000000200B002023
:105A0000480A00200148FDF7D7BF0000480A0020DF
:105A1000F0B50268274B284D284E294F294C4FF0EE
:105A2000804C984209D0604507D0A84205D0B042CA
:105A300003D0B84201D0A04204D122F0700E4A68CF
:105A400042EA0E0298421BD0604519D0A84217D0F6
:105A5000B04215D0B84213D0A04211D01A4DA8427E
:105A60000ED01A4DA8420BD0194DA84208D0194D9E
:105A7000A84205D0184DA84202D0184DA84203D123
:105A800022F44075CA682A434D6922F080022A43F5
:105A90008D68C5620D688562984201D0A04201D12F
:105AA00009690163016841F004010160012141615C
:105AB0000260F0BD0000014000040040000800400A
:105AC000000C00400004014000400140004401403F
:105AD0000048014000180040001C00400020004029
